{
  "contractName": "EventFactory",
  "abi": [
    {
      "constant": true,
      "inputs": [
        {
          "name": "",
          "type": "uint256"
        }
      ],
      "name": "events",
      "outputs": [
        {
          "name": "owner",
          "type": "address"
        },
        {
          "name": "eventId",
          "type": "uint256"
        },
        {
          "name": "name",
          "type": "string"
        },
        {
          "name": "date",
          "type": "uint256"
        },
        {
          "name": "numTickets",
          "type": "uint256"
        },
        {
          "name": "ticketPrice",
          "type": "uint256"
        },
        {
          "name": "ticketIndex",
          "type": "uint256"
        },
        {
          "name": "sellingQueueHead",
          "type": "uint256"
        },
        {
          "name": "sellingQueueTail",
          "type": "uint256"
        },
        {
          "name": "buyingQueueHead",
          "type": "uint256"
        },
        {
          "name": "buyingQueueTail",
          "type": "uint256"
        }
      ],
      "payable": false,
      "stateMutability": "view",
      "type": "function"
    },
    {
      "constant": true,
      "inputs": [],
      "name": "eventIndex",
      "outputs": [
        {
          "name": "",
          "type": "uint256"
        }
      ],
      "payable": false,
      "stateMutability": "view",
      "type": "function"
    },
    {
      "constant": true,
      "inputs": [
        {
          "name": "",
          "type": "uint256"
        }
      ],
      "name": "tickets",
      "outputs": [
        {
          "name": "owner",
          "type": "address"
        },
        {
          "name": "ticketId",
          "type": "uint256"
        },
        {
          "name": "eventId",
          "type": "uint256"
        }
      ],
      "payable": false,
      "stateMutability": "view",
      "type": "function"
    },
    {
      "constant": true,
      "inputs": [],
      "name": "ticketIdCounter",
      "outputs": [
        {
          "name": "",
          "type": "uint256"
        }
      ],
      "payable": false,
      "stateMutability": "view",
      "type": "function"
    },
    {
      "constant": false,
      "inputs": [
        {
          "name": "_name",
          "type": "string"
        },
        {
          "name": "_date",
          "type": "uint256"
        },
        {
          "name": "_numTickets",
          "type": "uint256"
        },
        {
          "name": "_ticketPrice",
          "type": "uint256"
        }
      ],
      "name": "createEvent",
      "outputs": [],
      "payable": false,
      "stateMutability": "nonpayable",
      "type": "function"
    },
    {
      "constant": false,
      "inputs": [
        {
          "name": "_eventId",
          "type": "uint256"
        }
      ],
      "name": "buyTicket",
      "outputs": [],
      "payable": true,
      "stateMutability": "payable",
      "type": "function"
    },
    {
      "constant": false,
      "inputs": [
        {
          "name": "_eventId",
          "type": "uint256"
        },
        {
          "name": "_ticketId",
          "type": "uint256"
        }
      ],
      "name": "sellTicket",
      "outputs": [],
      "payable": false,
      "stateMutability": "nonpayable",
      "type": "function"
    },
    {
      "constant": true,
      "inputs": [
        {
          "name": "_eventId",
          "type": "uint256"
        },
        {
          "name": "_ticketId",
          "type": "uint256"
        }
      ],
      "name": "getTicketOwner",
      "outputs": [
        {
          "name": "",
          "type": "address"
        }
      ],
      "payable": false,
      "stateMutability": "view",
      "type": "function"
    },
    {
      "constant": true,
      "inputs": [
        {
          "name": "_eventId",
          "type": "uint256"
        }
      ],
      "name": "getTicketPrice",
      "outputs": [
        {
          "name": "",
          "type": "uint256"
        }
      ],
      "payable": false,
      "stateMutability": "view",
      "type": "function"
    },
    {
      "constant": true,
      "inputs": [
        {
          "name": "_eventId",
          "type": "uint256"
        }
      ],
      "name": "getBuyingQueueTail",
      "outputs": [
        {
          "name": "",
          "type": "uint256"
        }
      ],
      "payable": false,
      "stateMutability": "view",
      "type": "function"
    },
    {
      "constant": true,
      "inputs": [
        {
          "name": "_eventId",
          "type": "uint256"
        }
      ],
      "name": "getBuyingQueueHead",
      "outputs": [
        {
          "name": "",
          "type": "uint256"
        }
      ],
      "payable": false,
      "stateMutability": "view",
      "type": "function"
    },
    {
      "constant": true,
      "inputs": [
        {
          "name": "_eventId",
          "type": "uint256"
        }
      ],
      "name": "getSellingQueueHead",
      "outputs": [
        {
          "name": "",
          "type": "uint256"
        }
      ],
      "payable": false,
      "stateMutability": "view",
      "type": "function"
    },
    {
      "constant": true,
      "inputs": [
        {
          "name": "_eventId",
          "type": "uint256"
        }
      ],
      "name": "getSellingQueueTail",
      "outputs": [
        {
          "name": "",
          "type": "uint256"
        }
      ],
      "payable": false,
      "stateMutability": "view",
      "type": "function"
    },
    {
      "constant": true,
      "inputs": [
        {
          "name": "_eventId",
          "type": "uint256"
        }
      ],
      "name": "getTickets",
      "outputs": [
        {
          "name": "_ticketIds",
          "type": "uint256[]"
        },
        {
          "name": "_addresses",
          "type": "address[]"
        }
      ],
      "payable": false,
      "stateMutability": "view",
      "type": "function"
    }
  ],
  "bytecode": "0x608060405234801561001057600080fd5b506114e8806100206000396000f3fe6080604052600436106100d0576000357c0100000000000000000000000000000000000000000000000000000000900463ffffffff1680630374ab0b146100d55780630b791430146101bb57806314f2979f146102e157806317d18bee146103b95780631ebffcc1146103e45780632a6c4c14146104335780632c2f28691461047857806350b44712146104c75780635f773d7f1461055057806367dd74ca146105d55780638051a31d146106035780638802255f14610652578063c0cadf681461067d578063f06fc961146106cc575b600080fd5b3480156100e157600080fd5b506101b9600480360360808110156100f857600080fd5b810190808035906020019064010000000081111561011557600080fd5b82018360208201111561012757600080fd5b8035906020019184600183028401116401000000008311171561014957600080fd5b91908080601f016020809104026020016040519081016040528093929190818152602001838380828437600081840152601f19601f82011690508083019250505050505050919291929080359060200190929190803590602001909291908035906020019092919050505061071b565b005b3480156101c757600080fd5b506101f4600480360360208110156101de57600080fd5b8101908080359060200190929190505050610875565b604051808c73ffffffffffffffffffffffffffffffffffffffff1673ffffffffffffffffffffffffffffffffffffffff1681526020018b8152602001806020018a815260200189815260200188815260200187815260200186815260200185815260200184815260200183815260200182810382528b818151815260200191508051906020019080838360005b8381101561029c578082015181840152602081019050610281565b50505050905090810190601f1680156102c95780820380516001836020036101000a031916815260200191505b509c5050505050505050505050505060405180910390f35b3480156102ed57600080fd5b5061031a6004803603602081101561030457600080fd5b8101908080359060200190929190505050610987565b604051808060200180602001838103835285818151815260200191508051906020019060200280838360005b83811015610361578082015181840152602081019050610346565b50505050905001838103825284818151815260200191508051906020019060200280838360005b838110156103a3578082015181840152602081019050610388565b5050505090500194505050505060405180910390f35b3480156103c557600080fd5b506103ce610b2e565b6040518082815260200191505060405180910390f35b3480156103f057600080fd5b5061041d6004803603602081101561040757600080fd5b8101908080359060200190929190505050610b34565b6040518082815260200191505060405180910390f35b34801561043f57600080fd5b506104766004803603604081101561045657600080fd5b810190808035906020019092919080359060200190929190505050610b53565b005b34801561048457600080fd5b506104b16004803603602081101561049b57600080fd5b8101908080359060200190929190505050610de2565b6040518082815260200191505060405180910390f35b3480156104d357600080fd5b50610500600480360360208110156104ea57600080fd5b8101908080359060200190929190505050610e01565b604051808473ffffffffffffffffffffffffffffffffffffffff1673ffffffffffffffffffffffffffffffffffffffff168152602001838152602001828152602001935050505060405180910390f35b34801561055c57600080fd5b506105936004803603604081101561057357600080fd5b810190808035906020019092919080359060200190929190505050610e4b565b604051808273ffffffffffffffffffffffffffffffffffffffff1673ffffffffffffffffffffffffffffffffffffffff16815260200191505060405180910390f35b610601600480360360208110156105eb57600080fd5b8101908080359060200190929190505050610e9f565b005b34801561060f57600080fd5b5061063c6004803603602081101561062657600080fd5b8101908080359060200190929190505050610fa5565b6040518082815260200191505060405180910390f35b34801561065e57600080fd5b50610667610fc4565b6040518082815260200191505060405180910390f35b34801561068957600080fd5b506106b6600480360360208110156106a057600080fd5b8101908080359060200190929190505050610fca565b6040518082815260200191505060405180910390f35b3480156106d857600080fd5b50610705600480360360208110156106ef57600080fd5b8101908080359060200190929190505050610fe9565b6040518082815260200191505060405180910390f35b610160604051908101604052803373ffffffffffffffffffffffffffffffffffffffff1681526020016001548152602001858152602001848152602001838152602001828152602001600081526020016000815260200160008152602001600081526020016000815250600080600154815260200190815260200160002060008201518160000160006101000a81548173ffffffffffffffffffffffffffffffffffffffff021916908373ffffffffffffffffffffffffffffffffffffffff160217905550602082015181600101556040820151816002019080519060200190610806929190611417565b50606082015181600301556080820151816004015560a0820151816005015560c0820151816006015560e082015181600701556101008201518160080155610120820151816009015561014082015181600a015590505060016000815480929190600101919050555050505050565b60006020528060005260406000206000915090508060000160009054906101000a900473ffffffffffffffffffffffffffffffffffffffff1690806001015490806002018054600181600116156101000203166002900480601f01602080910402602001604051908101604052809291908181526020018280546001816001161561010002031660029004801561094d5780601f106109225761010080835404028352916020019161094d565b820191906000526020600020905b81548152906001019060200180831161093057829003601f168201915b50505050509080600301549080600401549080600501549080600601549080600701549080600801549080600901549080600a015490508b565b606080600080848152602001908152602001600020600601546040519080825280602002602001820160405280156109ce5781602001602082028038833980820191505090505b50915060008084815260200190815260200160002060060154604051908082528060200260200182016040528015610a155781602001602082028038833980820191505090505b50905060008090505b60008085815260200190815260200160002060060154811015610b2257600080858152602001908152602001600020600c016000828152602001908152602001600020600101548382815181101515610a7357fe5b9060200190602002018181525050600080858152602001908152602001600020600c01600082815260200190815260200160002060000160009054906101000a900473ffffffffffffffffffffffffffffffffffffffff168282815181101515610ad957fe5b9060200190602002019073ffffffffffffffffffffffffffffffffffffffff16908173ffffffffffffffffffffffffffffffffffffffff16815250508080600101915050610a1e565b50818191509150915091565b60015481565b6000806000838152602001908152602001600020600701549050919050565b6000806000848152602001908152602001600020905080600c01600083815260200190815260200160002060000160009054906101000a900473ffffffffffffffffffffffffffffffffffffffff1673ffffffffffffffffffffffffffffffffffffffff163373ffffffffffffffffffffffffffffffffffffffff16141515610bdb57600080fd5b806009015481600a0154141515610d1c573373ffffffffffffffffffffffffffffffffffffffff166108fc82600501549081150290604051600060405180830381858888f19350505050158015610c36573d6000803e3d6000fd5b5080600d0160008260090154815260200190815260200160002060009054906101000a900473ffffffffffffffffffffffffffffffffffffffff1681600c01600084815260200190815260200160002060000160006101000a81548173ffffffffffffffffffffffffffffffffffffffff021916908373ffffffffffffffffffffffffffffffffffffffff16021790555080600d0160008260090154815260200190815260200160002060006101000a81549073ffffffffffffffffffffffffffffffffffffffff02191690558060090160008154809291906001019190505550610ddd565b80600c01600083815260200190815260200160002081600b016000836008015481526020019081526020016000206000820160009054906101000a900473ffffffffffffffffffffffffffffffffffffffff168160000160006101000a81548173ffffffffffffffffffffffffffffffffffffffff021916908373ffffffffffffffffffffffffffffffffffffffff160217905550600182015481600101556002820154816002015590505080600801600081548092919060010191905055505b505050565b6000806000838152602001908152602001600020600a01549050919050565b60036020528060005260406000206000915090508060000160009054906101000a900473ffffffffffffffffffffffffffffffffffffffff16908060010154908060020154905083565b6000806000848152602001908152602001600020600c01600083815260200190815260200160002060000160009054906101000a900473ffffffffffffffffffffffffffffffffffffffff16905092915050565b60008060008381526020019081526020016000209050806005015434141515610f56576040517f08c379a000000000000000000000000000000000000000000000000000000000815260040180806020018281038252602a8152602001807f5468652076616c756520646f6573206e6f74206d61746368207468652074696381526020017f6b65742070726963652e0000000000000000000000000000000000000000000081525060400191505060405180910390fd5b806004015481600601541015610f7557610f708133611008565b610fa1565b80600701548160080154141515610f9557610f908133611242565b610fa0565b610f9f81336113a7565b5b5b5050565b6000806000838152602001908152602001600020600901549050919050565b60025481565b6000806000838152602001908152602001600020600801549050919050565b6000806000838152602001908152602001600020600501549050919050565b600082600c01600084600601548152602001908152602001600020905082600101548160020181905550818160000160006101000a81548173ffffffffffffffffffffffffffffffffffffffff021916908373ffffffffffffffffffffffffffffffffffffffff16021790555060025481600101819055508083600c016000856006015481526020019081526020016000206000820160009054906101000a900473ffffffffffffffffffffffffffffffffffffffff168160000160006101000a81548173ffffffffffffffffffffffffffffffffffffffff021916908373ffffffffffffffffffffffffffffffffffffffff16021790555060018201548160010155600282015481600201559050508260060160008154809291906001019190505550806003600060025481526020019081526020016000206000820160009054906101000a900473ffffffffffffffffffffffffffffffffffffffff168160000160006101000a81548173ffffffffffffffffffffffffffffffffffffffff021916908373ffffffffffffffffffffffffffffffffffffffff16021790555060018201548160010155600282015481600201559050506002600081548092919060010191905055508260000160009054906101000a900473ffffffffffffffffffffffffffffffffffffffff1673ffffffffffffffffffffffffffffffffffffffff166108fc349081150290604051600060405180830381858888f1935050505015801561123c573d6000803e3d6000fd5b50505050565b81600b0160008360070154815260200190815260200160002060000160009054906101000a900473ffffffffffffffffffffffffffffffffffffffff1673ffffffffffffffffffffffffffffffffffffffff166108fc83600501549081150290604051600060405180830381858888f193505050501580156112c8573d6000803e3d6000fd5b508082600c01600084600b0160008660070154815260200190815260200160002060010154815260200190815260200160002060000160006101000a81548173ffffffffffffffffffffffffffffffffffffffff021916908373ffffffffffffffffffffffffffffffffffffffff16021790555081600b01600083600701548152602001908152602001600020600080820160006101000a81549073ffffffffffffffffffffffffffffffffffffffff021916905560018201600090556002820160009055505081600701600081548092919060010191905055505050565b8082600d01600084600a0154815260200190815260200160002060006101000a81548173ffffffffffffffffffffffffffffffffffffffff021916908373ffffffffffffffffffffffffffffffffffffffff16021790555081600a01600081548092919060010191905055505050565b828054600181600116156101000203166002900490600052602060002090601f016020900481019282601f1061145857805160ff1916838001178555611486565b82800160010185558215611486579182015b8281111561148557825182559160200191906001019061146a565b5b5090506114939190611497565b5090565b6114b991905b808211156114b557600081600090555060010161149d565b5090565b9056fea165627a7a723058206db7b77698dbff1c54c5e66c181e49dbfdd9014b0ecacee3a6bab58f898579cc0029",
  "source": "pragma solidity ^0.5.0;\n\ncontract EventFactory{\n    \n    mapping (uint => Event) public events;\n    uint public eventIndex;\n\n    // global counter such that every ticket has its unique id\n    uint public ticketIdCounter;\n    \n    // global mapping such that tickets can be quickly retrieved\n    mapping (uint => Ticket) public tickets;\n\n    struct Ticket{\n        address payable owner;\n        uint ticketId;\n        uint eventId;\n    }\n    \n    struct Event{\n        address payable owner;\n        uint eventId;\n        string name;\n        uint date;\n        uint numTickets;\n        uint ticketPrice;\n        uint ticketIndex;\n        uint sellingQueueHead;\n        uint sellingQueueTail;\n        uint buyingQueueHead;\n        uint buyingQueueTail;\n        mapping (uint => Ticket) sellingQueue;\n        mapping (uint => Ticket) tickets;\n        mapping (uint => address payable) buyingQueue;\n        // location\n        // websiteUrl\n        // imageUrl\n        // Organizer\n        // Description\n    }\n    \n    function createEvent(string memory _name, uint _date, uint _numTickets, uint _ticketPrice) public{\n        events[eventIndex] = Event({\n            owner: msg.sender, \n            eventId: eventIndex, \n            name: _name, \n            date: _date, \n            numTickets: _numTickets, \n            ticketPrice: _ticketPrice, \n            ticketIndex: 0, \n            sellingQueueHead: 0,\n            sellingQueueTail:0,\n            buyingQueueHead: 0,\n            buyingQueueTail: 0\n        });\n        eventIndex++;\n    }\n    \n    function buyTicket(uint _eventId) public payable{\n        Event storage e = events[_eventId];\n        require(msg.value == e.ticketPrice, \"The value does not match the ticket price.\");\n        \n        // if not all tickets have been issued, the buyer automatically buys from the event owner\n        if(e.ticketIndex < e.numTickets){\n            issueTicket(e, msg.sender);\n        }\n        \n        // if people want to sell tickets, the buyer automatically buys from the earliest seller\n        else if(e.sellingQueueTail != e.sellingQueueHead){\n            buyFromSellingQueue(e, msg.sender);\n        }\n        \n        // if nobody wants to sell yet, the buyer joins the buying queue\n        else{\n            joinBuyingQueue(e, msg.sender);\n        }\n    }\n    \n    function issueTicket(Event storage e, address payable owner) internal {\n            // issue the ticket\n            Ticket storage t = e.tickets[e.ticketIndex];\n            t.eventId = e.eventId;\n            t.owner = owner;\n            t.ticketId = ticketIdCounter;\n            e.tickets[e.ticketIndex] = t;\n            e.ticketIndex++;\n\n            // store it in the global ticket mapping\n            tickets[ticketIdCounter] = t;\n            ticketIdCounter++;\n            \n            // send ticket price to the event owner\n            (e.owner).transfer(msg.value);\n    }\n    \n    function buyFromSellingQueue(Event storage e, address payable newOwner) internal{\n        // transfer money\n        (e.sellingQueue[e.sellingQueueHead].owner).transfer(e.ticketPrice);\n        \n        // transfer ownership\n        e.tickets[e.sellingQueue[e.sellingQueueHead].ticketId].owner = newOwner;\n        \n        // remove user from the queue\n        delete e.sellingQueue[e.sellingQueueHead];\n        e.sellingQueueHead++;\n    }\n    \n    function sellTicket(uint _eventId, uint _ticketId) public{\n        Event storage e = events[_eventId];\n        \n        require(msg.sender == e.tickets[_ticketId].owner);\n        \n        // if people are in the waiting queue for buying tickets\n        if(e.buyingQueueTail != e.buyingQueueHead){\n            // transfer money\n            (msg.sender).transfer(e.ticketPrice);\n            \n            // transfer ownership\n            e.tickets[_ticketId].owner = e.buyingQueue[e.buyingQueueHead];\n            \n            // remove user from the queue\n            delete e.buyingQueue[e.buyingQueueHead];\n            e.buyingQueueHead++;\n        }\n        \n        // else join selling queue\n        else{\n            e.sellingQueue[e.sellingQueueTail] = e.tickets[_ticketId];\n            e.sellingQueueTail++;\n        }\n    }\n    \n    function joinBuyingQueue(Event storage e, address payable owner) internal{\n        e.buyingQueue[e.buyingQueueTail] = owner;\n        e.buyingQueueTail++;\n    }\n    \n    function getTicketOwner(uint _eventId, uint _ticketId) public view returns(address){\n        return events[_eventId].tickets[_ticketId].owner;\n    }\n    \n    function getTicketPrice(uint _eventId) public view returns(uint){\n        return events[_eventId].ticketPrice;\n    }\n    \n    function getBuyingQueueTail(uint _eventId) public view returns(uint){\n        return events[_eventId].buyingQueueTail;\n    }\n    \n    function getBuyingQueueHead(uint _eventId) public view returns(uint){\n        return events[_eventId].buyingQueueHead;\n    }\n    \n    function getSellingQueueHead(uint _eventId) public view returns(uint){\n        return events[_eventId].sellingQueueHead;\n    }\n    \n    function getSellingQueueTail(uint _eventId) public view returns(uint){\n        return events[_eventId].sellingQueueTail;\n    }\n\n    // as we cannot return an array of structs in solidity we return two arrays\n    function getTickets(uint _eventId) public view returns(uint[] memory _ticketIds, address[] memory _addresses){\n        _ticketIds = new uint[](events[_eventId].ticketIndex);\n        _addresses = new address[](events[_eventId].ticketIndex);\n\n        for(uint256 i = 0; i < events[_eventId].ticketIndex; i++){\n            _ticketIds[i] = events[_eventId].tickets[i].ticketId;\n            _addresses[i] = events[_eventId].tickets[i].owner;\n\n        }\n        return (_ticketIds, _addresses);\n    }\n}",
  "sourcePath": "/Users/simonbachmann/Programming/ticketing-dapp/contracts/EventFactory.sol",
  "compiler": {
    "name": "solc",
    "version": "0.5.0+commit.1d4f565a.Emscripten.clang"
  },
  "schemaVersion": "3.0.3",
  "updatedAt": "2019-05-13T10:59:55.695Z",
  "devdoc": {
    "methods": {}
  },
  "userdoc": {
    "methods": {}
  }
}