{
  "contractName": "EventFacotry",
  "abi": [
    {
      "constant": true,
      "inputs": [
        {
          "name": "",
          "type": "uint256"
        }
      ],
      "name": "events",
      "outputs": [
        {
          "name": "owner",
          "type": "address"
        },
        {
          "name": "eventId",
          "type": "uint256"
        },
        {
          "name": "name",
          "type": "string"
        },
        {
          "name": "date",
          "type": "uint256"
        },
        {
          "name": "numTickets",
          "type": "uint256"
        },
        {
          "name": "ticketPrice",
          "type": "uint256"
        },
        {
          "name": "ticketIndex",
          "type": "uint256"
        },
        {
          "name": "sellingQueueHead",
          "type": "uint256"
        },
        {
          "name": "sellingQueueTail",
          "type": "uint256"
        },
        {
          "name": "buyingQueueHead",
          "type": "uint256"
        },
        {
          "name": "buyingQueueTail",
          "type": "uint256"
        }
      ],
      "payable": false,
      "stateMutability": "view",
      "type": "function"
    },
    {
      "constant": true,
      "inputs": [],
      "name": "eventIndex",
      "outputs": [
        {
          "name": "",
          "type": "uint256"
        }
      ],
      "payable": false,
      "stateMutability": "view",
      "type": "function"
    },
    {
      "constant": false,
      "inputs": [
        {
          "name": "_name",
          "type": "string"
        },
        {
          "name": "_date",
          "type": "uint256"
        },
        {
          "name": "_numTickets",
          "type": "uint256"
        }
      ],
      "name": "createEvent",
      "outputs": [],
      "payable": false,
      "stateMutability": "nonpayable",
      "type": "function"
    },
    {
      "constant": false,
      "inputs": [
        {
          "name": "_eventId",
          "type": "uint256"
        }
      ],
      "name": "buyTicket",
      "outputs": [],
      "payable": true,
      "stateMutability": "payable",
      "type": "function"
    },
    {
      "constant": false,
      "inputs": [
        {
          "name": "_eventId",
          "type": "uint256"
        },
        {
          "name": "_ticketId",
          "type": "uint256"
        }
      ],
      "name": "sellTicket",
      "outputs": [],
      "payable": false,
      "stateMutability": "nonpayable",
      "type": "function"
    },
    {
      "constant": true,
      "inputs": [
        {
          "name": "_eventId",
          "type": "uint256"
        },
        {
          "name": "_ticketId",
          "type": "uint256"
        }
      ],
      "name": "getTicketOwner",
      "outputs": [
        {
          "name": "",
          "type": "address"
        }
      ],
      "payable": false,
      "stateMutability": "view",
      "type": "function"
    },
    {
      "constant": true,
      "inputs": [
        {
          "name": "_eventId",
          "type": "uint256"
        }
      ],
      "name": "getTicketPrice",
      "outputs": [
        {
          "name": "",
          "type": "uint256"
        }
      ],
      "payable": false,
      "stateMutability": "view",
      "type": "function"
    },
    {
      "constant": true,
      "inputs": [
        {
          "name": "_eventId",
          "type": "uint256"
        }
      ],
      "name": "getBuyingQueueTail",
      "outputs": [
        {
          "name": "",
          "type": "uint256"
        }
      ],
      "payable": false,
      "stateMutability": "view",
      "type": "function"
    },
    {
      "constant": true,
      "inputs": [
        {
          "name": "_eventId",
          "type": "uint256"
        }
      ],
      "name": "getBuyingQueueHead",
      "outputs": [
        {
          "name": "",
          "type": "uint256"
        }
      ],
      "payable": false,
      "stateMutability": "view",
      "type": "function"
    },
    {
      "constant": true,
      "inputs": [
        {
          "name": "_eventId",
          "type": "uint256"
        }
      ],
      "name": "getSellingQueueHead",
      "outputs": [
        {
          "name": "",
          "type": "uint256"
        }
      ],
      "payable": false,
      "stateMutability": "view",
      "type": "function"
    },
    {
      "constant": true,
      "inputs": [
        {
          "name": "_eventId",
          "type": "uint256"
        }
      ],
      "name": "getSellingQueueTail",
      "outputs": [
        {
          "name": "",
          "type": "uint256"
        }
      ],
      "payable": false,
      "stateMutability": "view",
      "type": "function"
    }
  ],
  "bytecode": "0x608060405234801561001057600080fd5b50611007806100206000396000f3fe6080604052600436106100af576000357c0100000000000000000000000000000000000000000000000000000000900463ffffffff1680630b791430146100b457806317d18bee146101da5780631ebffcc1146102055780632a6c4c14146102545780632c2f2869146102995780635f773d7f146102e857806367dd74ca1461036d5780638051a31d1461039b5780639e9580f6146103ea578063c0cadf68146104c6578063f06fc96114610515575b600080fd5b3480156100c057600080fd5b506100ed600480360360208110156100d757600080fd5b8101908080359060200190929190505050610564565b604051808c73ffffffffffffffffffffffffffffffffffffffff1673ffffffffffffffffffffffffffffffffffffffff1681526020018b8152602001806020018a815260200189815260200188815260200187815260200186815260200185815260200184815260200183815260200182810382528b818151815260200191508051906020019080838360005b8381101561019557808201518184015260208101905061017a565b50505050905090810190601f1680156101c25780820380516001836020036101000a031916815260200191505b509c5050505050505050505050505060405180910390f35b3480156101e657600080fd5b506101ef610676565b6040518082815260200191505060405180910390f35b34801561021157600080fd5b5061023e6004803603602081101561022857600080fd5b810190808035906020019092919050505061067c565b6040518082815260200191505060405180910390f35b34801561026057600080fd5b506102976004803603604081101561027757600080fd5b81019080803590602001909291908035906020019092919050505061069b565b005b3480156102a557600080fd5b506102d2600480360360208110156102bc57600080fd5b810190808035906020019092919050505061092a565b6040518082815260200191505060405180910390f35b3480156102f457600080fd5b5061032b6004803603604081101561030b57600080fd5b810190808035906020019092919080359060200190929190505050610949565b604051808273ffffffffffffffffffffffffffffffffffffffff1673ffffffffffffffffffffffffffffffffffffffff16815260200191505060405180910390f35b6103996004803603602081101561038357600080fd5b810190808035906020019092919050505061099d565b005b3480156103a757600080fd5b506103d4600480360360208110156103be57600080fd5b8101908080359060200190929190505050610a14565b6040518082815260200191505060405180910390f35b3480156103f657600080fd5b506104c46004803603606081101561040d57600080fd5b810190808035906020019064010000000081111561042a57600080fd5b82018360208201111561043c57600080fd5b8035906020019184600183028401116401000000008311171561045e57600080fd5b91908080601f016020809104026020016040519081016040528093929190818152602001838380828437600081840152601f19601f8201169050808301925050505050505091929192908035906020019092919080359060200190929190505050610a33565b005b3480156104d257600080fd5b506104ff600480360360208110156104e957600080fd5b8101908080359060200190929190505050610b8d565b6040518082815260200191505060405180910390f35b34801561052157600080fd5b5061054e6004803603602081101561053857600080fd5b8101908080359060200190929190505050610bac565b6040518082815260200191505060405180910390f35b60006020528060005260406000206000915090508060000160009054906101000a900473ffffffffffffffffffffffffffffffffffffffff1690806001015490806002018054600181600116156101000203166002900480601f01602080910402602001604051908101604052809291908181526020018280546001816001161561010002031660029004801561063c5780601f106106115761010080835404028352916020019161063c565b820191906000526020600020905b81548152906001019060200180831161061f57829003601f168201915b50505050509080600301549080600401549080600501549080600601549080600701549080600801549080600901549080600a015490508b565b60015481565b6000806000838152602001908152602001600020600701549050919050565b6000806000848152602001908152602001600020905080600c01600083815260200190815260200160002060000160009054906101000a900473ffffffffffffffffffffffffffffffffffffffff1673ffffffffffffffffffffffffffffffffffffffff163373ffffffffffffffffffffffffffffffffffffffff1614151561072357600080fd5b806009015481600a0154141515610864573373ffffffffffffffffffffffffffffffffffffffff166108fc82600501549081150290604051600060405180830381858888f1935050505015801561077e573d6000803e3d6000fd5b5080600d0160008260090154815260200190815260200160002060009054906101000a900473ffffffffffffffffffffffffffffffffffffffff1681600c01600084815260200190815260200160002060000160006101000a81548173ffffffffffffffffffffffffffffffffffffffff021916908373ffffffffffffffffffffffffffffffffffffffff16021790555080600d0160008260090154815260200190815260200160002060006101000a81549073ffffffffffffffffffffffffffffffffffffffff02191690558060090160008154809291906001019190505550610925565b80600c01600083815260200190815260200160002081600b016000836008015481526020019081526020016000206000820160009054906101000a900473ffffffffffffffffffffffffffffffffffffffff168160000160006101000a81548173ffffffffffffffffffffffffffffffffffffffff021916908373ffffffffffffffffffffffffffffffffffffffff160217905550600182015481600101556002820154816002015590505080600801600081548092919060010191905055505b505050565b6000806000838152602001908152602001600020600a01549050919050565b6000806000848152602001908152602001600020600c01600083815260200190815260200160002060000160009054906101000a900473ffffffffffffffffffffffffffffffffffffffff16905092915050565b600080600083815260200190815260200160002090508060050154341415156109c557600080fd5b8060040154816006015410156109e4576109df8133610bcb565b610a10565b80600701548160080154141515610a04576109ff8133610d61565b610a0f565b610a0e8133610ec6565b5b5b5050565b6000806000838152602001908152602001600020600901549050919050565b610160604051908101604052803373ffffffffffffffffffffffffffffffffffffffff168152602001600154815260200184815260200183815260200182815260200160018152602001600081526020016000815260200160008152602001600081526020016000815250600080600154815260200190815260200160002060008201518160000160006101000a81548173ffffffffffffffffffffffffffffffffffffffff021916908373ffffffffffffffffffffffffffffffffffffffff160217905550602082015181600101556040820151816002019080519060200190610b1f929190610f36565b50606082015181600301556080820151816004015560a0820151816005015560c0820151816006015560e082015181600701556101008201518160080155610120820151816009015561014082015181600a0155905050600160008154809291906001019190505550505050565b6000806000838152602001908152602001600020600801549050919050565b6000806000838152602001908152602001600020600501549050919050565b600082600c01600084600601548152602001908152602001600020905082600101548160020181905550818160000160006101000a81548173ffffffffffffffffffffffffffffffffffffffff021916908373ffffffffffffffffffffffffffffffffffffffff160217905550826006015481600101819055508083600c016000856006015481526020019081526020016000206000820160009054906101000a900473ffffffffffffffffffffffffffffffffffffffff168160000160006101000a81548173ffffffffffffffffffffffffffffffffffffffff021916908373ffffffffffffffffffffffffffffffffffffffff160217905550600182015481600101556002820154816002015590505082600601600081548092919060010191905055508260000160009054906101000a900473ffffffffffffffffffffffffffffffffffffffff1673ffffffffffffffffffffffffffffffffffffffff166108fc349081150290604051600060405180830381858888f19350505050158015610d5b573d6000803e3d6000fd5b50505050565b81600b0160008360070154815260200190815260200160002060000160009054906101000a900473ffffffffffffffffffffffffffffffffffffffff1673ffffffffffffffffffffffffffffffffffffffff166108fc83600501549081150290604051600060405180830381858888f19350505050158015610de7573d6000803e3d6000fd5b508082600c01600084600b0160008660070154815260200190815260200160002060010154815260200190815260200160002060000160006101000a81548173ffffffffffffffffffffffffffffffffffffffff021916908373ffffffffffffffffffffffffffffffffffffffff16021790555081600b01600083600701548152602001908152602001600020600080820160006101000a81549073ffffffffffffffffffffffffffffffffffffffff021916905560018201600090556002820160009055505081600701600081548092919060010191905055505050565b8082600d01600084600a0154815260200190815260200160002060006101000a81548173ffffffffffffffffffffffffffffffffffffffff021916908373ffffffffffffffffffffffffffffffffffffffff16021790555081600a01600081548092919060010191905055505050565b828054600181600116156101000203166002900490600052602060002090601f016020900481019282601f10610f7757805160ff1916838001178555610fa5565b82800160010185558215610fa5579182015b82811115610fa4578251825591602001919060010190610f89565b5b509050610fb29190610fb6565b5090565b610fd891905b80821115610fd4576000816000905550600101610fbc565b5090565b9056fea165627a7a723058202ef2455931661c58a1fdd8cbabccb9aa7583a230f1c0a17d5d77c860f1c6dcfc0029",
  "source": "pragma solidity ^0.5.0;\n\ncontract EventFacotry{\n    \n    mapping (uint => Event) public events;\n    uint public eventIndex;\n    \n    struct Ticket{\n        address payable owner;\n        uint ticketId;\n        uint eventId;\n    }\n    \n    struct Event{\n        address payable owner;\n        uint eventId;\n        string name;\n        uint date;\n        uint numTickets;\n        uint ticketPrice;\n        uint ticketIndex;\n        uint sellingQueueHead;\n        uint sellingQueueTail;\n        uint buyingQueueHead;\n        uint buyingQueueTail;\n        mapping (uint => Ticket) sellingQueue;\n        mapping (uint => Ticket) tickets;\n        mapping (uint => address payable) buyingQueue;\n    }\n    \n    function createEvent(string memory _name, uint _date, uint _numTickets) public{\n        events[eventIndex] = Event({\n            owner: msg.sender, \n            eventId: eventIndex, \n            name: _name, \n            date: _date, \n            numTickets: _numTickets, \n            ticketPrice: 1, \n            ticketIndex: 0, \n            sellingQueueHead: 0,\n            sellingQueueTail:0,\n            buyingQueueHead: 0,\n            buyingQueueTail: 0\n\n        });\n        eventIndex++;\n    }\n    \n    function buyTicket(uint _eventId) public payable{\n        Event storage e = events[_eventId];\n        require(msg.value == e.ticketPrice);\n        \n        // if not all tickets have been issued, the buyer automatically buys from the event owner\n        if(e.ticketIndex < e.numTickets){\n            issueTicket(e, msg.sender);\n        }\n        \n        // if people want to sell tickets, the buyer automatically buys from the earliest seller\n        else if(e.sellingQueueTail != e.sellingQueueHead){\n            buyFromSellingQueue(e, msg.sender);\n        }\n        \n        // if nobody wants to sell yet, the buyer joins the buying queue\n        else{\n            joinBuyingQueue(e, msg.sender);\n        }\n    }\n    \n    function issueTicket(Event storage e, address payable owner) internal {\n            // issue the ticket\n            Ticket storage t = e.tickets[e.ticketIndex];\n            t.eventId = e.eventId;\n            t.owner = owner;\n            t.ticketId = e.ticketIndex;\n            e.tickets[e.ticketIndex] = t;\n            e.ticketIndex++;\n            \n            // send ticket price to the event owner\n            (e.owner).transfer(msg.value);\n    }\n    \n    function buyFromSellingQueue(Event storage e, address payable newOwner) internal{\n        // transfer money\n        (e.sellingQueue[e.sellingQueueHead].owner).transfer(e.ticketPrice);\n        \n        // transfer ownership\n        e.tickets[e.sellingQueue[e.sellingQueueHead].ticketId].owner = newOwner;\n        \n        // remove user from the queue\n        delete e.sellingQueue[e.sellingQueueHead];\n        e.sellingQueueHead++;\n    }\n    \n    function sellTicket(uint _eventId, uint _ticketId) public{\n        Event storage e = events[_eventId];\n        \n        require(msg.sender == e.tickets[_ticketId].owner);\n        \n        // if people are in the waiting queue for buying tickets\n        if(e.buyingQueueTail != e.buyingQueueHead){\n            // transfer money\n            (msg.sender).transfer(e.ticketPrice);\n            \n            // transfer ownership\n            e.tickets[_ticketId].owner = e.buyingQueue[e.buyingQueueHead];\n            \n            // remove user from the queue\n            delete e.buyingQueue[e.buyingQueueHead];\n            e.buyingQueueHead++;\n        }\n        \n        // else join selling queue\n        else{\n            e.sellingQueue[e.sellingQueueTail] = e.tickets[_ticketId];\n            e.sellingQueueTail++;\n        }\n    }\n    \n    function joinBuyingQueue(Event storage e, address payable owner) internal{\n        e.buyingQueue[e.buyingQueueTail] = owner;\n        e.buyingQueueTail++;\n    }\n    \n    function getTicketOwner(uint _eventId, uint _ticketId) public view returns(address){\n        return events[_eventId].tickets[_ticketId].owner;\n    }\n    \n    function getTicketPrice(uint _eventId) public view returns(uint){\n        return events[_eventId].ticketPrice;\n    }\n    \n    function getBuyingQueueTail(uint _eventId) public view returns(uint){\n        return events[_eventId].buyingQueueTail;\n    }\n    \n    function getBuyingQueueHead(uint _eventId) public view returns(uint){\n        return events[_eventId].buyingQueueHead;\n    }\n    \n    function getSellingQueueHead(uint _eventId) public view returns(uint){\n        return events[_eventId].sellingQueueHead;\n    }\n    \n    function getSellingQueueTail(uint _eventId) public view returns(uint){\n        return events[_eventId].sellingQueueTail;\n    }\n}",
  "sourcePath": "/Users/simonbachmann/Programming/ticketing-dapp/contracts/EventFacotry.sol",
  "compiler": {
    "name": "solc",
    "version": "0.5.0+commit.1d4f565a.Emscripten.clang"
  },
  "schemaVersion": "3.0.3",
  "updatedAt": "2019-05-07T15:45:19.832Z",
  "devdoc": {
    "methods": {}
  },
  "userdoc": {
    "methods": {}
  }
}